{
  "transactions": [
    {
      "hash": "0x21d7c4ebc66862cb9aa91d156c536a274143457e197731604f68bcbf825b0aac",
      "transactionType": "CALL",
      "contractName": "LinkToken",
      "contractAddress": "0x779877a7b0d9e8603169ddbd7836e478b4624789",
      "function": "transferAndCall(address,uint256,bytes)",
      "arguments": [
        "0x9DdfaCa8183c41ad55329BdeeD9F6A8d53168B1B",
        "3000000000000000000",
        "0xe0b0ec1fe478fcc95a91bf2280465572f856fe721b13c32da964a98f77458013"
      ],
      "transaction": {
        "from": "0xa9fc12fe48989444f5f921a53ef9d270daa9c4db",
        "to": "0x779877a7b0d9e8603169ddbd7836e478b4624789",
        "gas": "0x1c1ff",
        "value": "0x0",
        "input": "0x4000aea00000000000000000000000009ddfaca8183c41ad55329bdeed9f6a8d53168b1b00000000000000000000000000000000000000000000000029a2241af62c000000000000000000000000000000000000000000000000000000000000000000600000000000000000000000000000000000000000000000000000000000000020e0b0ec1fe478fcc95a91bf2280465572f856fe721b13c32da964a98f77458013",
        "nonce": "0xb",
        "chainId": "0xaa36a7"
      },
      "additionalContracts": [],
      "isFixedGasLimit": false
    }
  ],
  "receipts": [
    {
      "status": "0x1",
      "cumulativeGasUsed": "0x79bb73",
      "logs": [
        {
          "address": "0x779877a7b0d9e8603169ddbd7836e478b4624789",
          "topics": [
            "0xddf252ad1be2c89b69c2b068fc378daa952ba7f163c4a11628f55a4df523b3ef",
            "0x000000000000000000000000a9fc12fe48989444f5f921a53ef9d270daa9c4db",
            "0x0000000000000000000000009ddfaca8183c41ad55329bdeed9f6a8d53168b1b"
          ],
          "data": "0x00000000000000000000000000000000000000000000000029a2241af62c0000",
          "blockHash": "0xb5cb569e6c5dc6a5754bede477e1c2c36a6fc5d9fe6d0eb9e2b52cb7db6023cb",
          "blockNumber": "0x743ca8",
          "transactionHash": "0x21d7c4ebc66862cb9aa91d156c536a274143457e197731604f68bcbf825b0aac",
          "transactionIndex": "0x58",
          "logIndex": "0x81",
          "removed": false
        },
        {
          "address": "0x779877a7b0d9e8603169ddbd7836e478b4624789",
          "topics": [
            "0xe19260aff97b920c7df27010903aeb9c8d2be5d310a2c67824cf3f15396e4c16",
            "0x000000000000000000000000a9fc12fe48989444f5f921a53ef9d270daa9c4db",
            "0x0000000000000000000000009ddfaca8183c41ad55329bdeed9f6a8d53168b1b"
          ],
          "data": "0x00000000000000000000000000000000000000000000000029a2241af62c000000000000000000000000000000000000000000000000000000000000000000400000000000000000000000000000000000000000000000000000000000000020e0b0ec1fe478fcc95a91bf2280465572f856fe721b13c32da964a98f77458013",
          "blockHash": "0xb5cb569e6c5dc6a5754bede477e1c2c36a6fc5d9fe6d0eb9e2b52cb7db6023cb",
          "blockNumber": "0x743ca8",
          "transactionHash": "0x21d7c4ebc66862cb9aa91d156c536a274143457e197731604f68bcbf825b0aac",
          "transactionIndex": "0x58",
          "logIndex": "0x82",
          "removed": false
        },
        {
          "address": "0x9ddfaca8183c41ad55329bdeed9f6a8d53168b1b",
          "topics": [
            "0x1ced9348ff549fceab2ac57cd3a9de38edaaab274b725ee82c23e8fc8c4eec7a",
            "0xe0b0ec1fe478fcc95a91bf2280465572f856fe721b13c32da964a98f77458013"
          ],
          "data": "0x000000000000000000000000000000000000000000000000000000000000000000000000000000000000000000000000000000000000000029a2241af62c0000",
          "blockHash": "0xb5cb569e6c5dc6a5754bede477e1c2c36a6fc5d9fe6d0eb9e2b52cb7db6023cb",
          "blockNumber": "0x743ca8",
          "transactionHash": "0x21d7c4ebc66862cb9aa91d156c536a274143457e197731604f68bcbf825b0aac",
          "transactionIndex": "0x58",
          "logIndex": "0x83",
          "removed": false
        }
      ],
      "logsBloom": "0x00000004000000000000000000000000000000000020000000000000020000000000000000000000000000000000000000000000000000000000000000000000000000000000000000000008000000000000010000000000000020020020000008000000000000000000000000000000000000000000000000000010000040000000000000000000000000010000800000000020000000000000000000000000000000000000000000000004010020000000000000000000000004000000000000000002000000000000000000000000000000000000000100000000000000000010000000000000800000000000000400000000000002000000000000000000",
      "type": "0x2",
      "transactionHash": "0x21d7c4ebc66862cb9aa91d156c536a274143457e197731604f68bcbf825b0aac",
      "transactionIndex": "0x58",
      "blockHash": "0xb5cb569e6c5dc6a5754bede477e1c2c36a6fc5d9fe6d0eb9e2b52cb7db6023cb",
      "blockNumber": "0x743ca8",
      "gasUsed": "0x133b1",
      "effectiveGasPrice": "0x5dc7a12a9",
      "from": "0xa9fc12fe48989444f5f921a53ef9d270daa9c4db",
      "to": "0x779877a7b0d9e8603169ddbd7836e478b4624789",
      "contractAddress": null
    }
  ],
  "libraries": [],
  "pending": [],
  "returns": {},
  "timestamp": 1738418271,
  "chain": 11155111,
  "commit": "88e2304"
}